{
  "contractName": "HHT",
  "abi": [
    {
      "inputs": [],
      "stateMutability": "nonpayable",
      "type": "constructor"
    },
    {
      "anonymous": false,
      "inputs": [
        {
          "indexed": true,
          "internalType": "address",
          "name": "owner",
          "type": "address"
        },
        {
          "indexed": true,
          "internalType": "address",
          "name": "approved",
          "type": "address"
        },
        {
          "indexed": true,
          "internalType": "uint256",
          "name": "tokenId",
          "type": "uint256"
        }
      ],
      "name": "Approval",
      "type": "event"
    },
    {
      "anonymous": false,
      "inputs": [
        {
          "indexed": true,
          "internalType": "address",
          "name": "owner",
          "type": "address"
        },
        {
          "indexed": true,
          "internalType": "address",
          "name": "operator",
          "type": "address"
        },
        {
          "indexed": false,
          "internalType": "bool",
          "name": "approved",
          "type": "bool"
        }
      ],
      "name": "ApprovalForAll",
      "type": "event"
    },
    {
      "anonymous": false,
      "inputs": [
        {
          "indexed": false,
          "internalType": "address",
          "name": "customer",
          "type": "address"
        },
        {
          "indexed": false,
          "internalType": "uint256",
          "name": "roomNumber",
          "type": "uint256"
        }
      ],
      "name": "CheckIn",
      "type": "event"
    },
    {
      "anonymous": false,
      "inputs": [
        {
          "indexed": false,
          "internalType": "address",
          "name": "customer",
          "type": "address"
        },
        {
          "indexed": false,
          "internalType": "uint256",
          "name": "roomNumber",
          "type": "uint256"
        }
      ],
      "name": "CheckOut",
      "type": "event"
    },
    {
      "anonymous": false,
      "inputs": [
        {
          "indexed": false,
          "internalType": "uint256",
          "name": "roomNumber",
          "type": "uint256"
        }
      ],
      "name": "RoomBooked",
      "type": "event"
    },
    {
      "anonymous": false,
      "inputs": [
        {
          "indexed": false,
          "internalType": "uint256",
          "name": "roomNumber",
          "type": "uint256"
        }
      ],
      "name": "RoomCanceled",
      "type": "event"
    },
    {
      "anonymous": false,
      "inputs": [
        {
          "indexed": false,
          "internalType": "uint256",
          "name": "roomNumber",
          "type": "uint256"
        }
      ],
      "name": "RoomReassigned",
      "type": "event"
    },
    {
      "anonymous": false,
      "inputs": [
        {
          "indexed": true,
          "internalType": "address",
          "name": "from",
          "type": "address"
        },
        {
          "indexed": true,
          "internalType": "address",
          "name": "to",
          "type": "address"
        },
        {
          "indexed": true,
          "internalType": "uint256",
          "name": "tokenId",
          "type": "uint256"
        }
      ],
      "name": "Transfer",
      "type": "event"
    },
    {
      "inputs": [
        {
          "internalType": "address",
          "name": "to",
          "type": "address"
        },
        {
          "internalType": "uint256",
          "name": "tokenId",
          "type": "uint256"
        }
      ],
      "name": "approve",
      "outputs": [],
      "stateMutability": "nonpayable",
      "type": "function"
    },
    {
      "inputs": [
        {
          "internalType": "address",
          "name": "owner",
          "type": "address"
        }
      ],
      "name": "balanceOf",
      "outputs": [
        {
          "internalType": "uint256",
          "name": "",
          "type": "uint256"
        }
      ],
      "stateMutability": "view",
      "type": "function",
      "constant": true
    },
    {
      "inputs": [
        {
          "internalType": "uint256",
          "name": "tokenId",
          "type": "uint256"
        }
      ],
      "name": "getApproved",
      "outputs": [
        {
          "internalType": "address",
          "name": "",
          "type": "address"
        }
      ],
      "stateMutability": "view",
      "type": "function",
      "constant": true
    },
    {
      "inputs": [
        {
          "internalType": "address",
          "name": "owner",
          "type": "address"
        },
        {
          "internalType": "address",
          "name": "operator",
          "type": "address"
        }
      ],
      "name": "isApprovedForAll",
      "outputs": [
        {
          "internalType": "bool",
          "name": "",
          "type": "bool"
        }
      ],
      "stateMutability": "view",
      "type": "function",
      "constant": true
    },
    {
      "inputs": [],
      "name": "name",
      "outputs": [
        {
          "internalType": "string",
          "name": "",
          "type": "string"
        }
      ],
      "stateMutability": "view",
      "type": "function",
      "constant": true
    },
    {
      "inputs": [
        {
          "internalType": "uint256",
          "name": "tokenId",
          "type": "uint256"
        }
      ],
      "name": "ownerOf",
      "outputs": [
        {
          "internalType": "address",
          "name": "",
          "type": "address"
        }
      ],
      "stateMutability": "view",
      "type": "function",
      "constant": true
    },
    {
      "inputs": [
        {
          "internalType": "address",
          "name": "from",
          "type": "address"
        },
        {
          "internalType": "address",
          "name": "to",
          "type": "address"
        },
        {
          "internalType": "uint256",
          "name": "tokenId",
          "type": "uint256"
        }
      ],
      "name": "safeTransferFrom",
      "outputs": [],
      "stateMutability": "nonpayable",
      "type": "function"
    },
    {
      "inputs": [
        {
          "internalType": "address",
          "name": "from",
          "type": "address"
        },
        {
          "internalType": "address",
          "name": "to",
          "type": "address"
        },
        {
          "internalType": "uint256",
          "name": "tokenId",
          "type": "uint256"
        },
        {
          "internalType": "bytes",
          "name": "data",
          "type": "bytes"
        }
      ],
      "name": "safeTransferFrom",
      "outputs": [],
      "stateMutability": "nonpayable",
      "type": "function"
    },
    {
      "inputs": [
        {
          "internalType": "address",
          "name": "operator",
          "type": "address"
        },
        {
          "internalType": "bool",
          "name": "approved",
          "type": "bool"
        }
      ],
      "name": "setApprovalForAll",
      "outputs": [],
      "stateMutability": "nonpayable",
      "type": "function"
    },
    {
      "inputs": [
        {
          "internalType": "bytes4",
          "name": "interfaceId",
          "type": "bytes4"
        }
      ],
      "name": "supportsInterface",
      "outputs": [
        {
          "internalType": "bool",
          "name": "",
          "type": "bool"
        }
      ],
      "stateMutability": "view",
      "type": "function",
      "constant": true
    },
    {
      "inputs": [],
      "name": "symbol",
      "outputs": [
        {
          "internalType": "string",
          "name": "",
          "type": "string"
        }
      ],
      "stateMutability": "view",
      "type": "function",
      "constant": true
    },
    {
      "inputs": [
        {
          "internalType": "uint256",
          "name": "tokenId",
          "type": "uint256"
        }
      ],
      "name": "tokenURI",
      "outputs": [
        {
          "internalType": "string",
          "name": "",
          "type": "string"
        }
      ],
      "stateMutability": "view",
      "type": "function",
      "constant": true
    },
    {
      "inputs": [
        {
          "internalType": "address",
          "name": "from",
          "type": "address"
        },
        {
          "internalType": "address",
          "name": "to",
          "type": "address"
        },
        {
          "internalType": "uint256",
          "name": "tokenId",
          "type": "uint256"
        }
      ],
      "name": "transferFrom",
      "outputs": [],
      "stateMutability": "nonpayable",
      "type": "function"
    },
    {
      "inputs": [
        {
          "internalType": "uint256",
          "name": "price",
          "type": "uint256"
        }
      ],
      "name": "addRoom",
      "outputs": [],
      "stateMutability": "nonpayable",
      "type": "function"
    },
    {
      "inputs": [
        {
          "internalType": "uint256",
          "name": "roomNumber",
          "type": "uint256"
        }
      ],
      "name": "bookHotelRoom",
      "outputs": [],
      "stateMutability": "payable",
      "type": "function",
      "payable": true
    },
    {
      "inputs": [
        {
          "internalType": "uint256",
          "name": "roomNumber",
          "type": "uint256"
        }
      ],
      "name": "cancelHotelBooking",
      "outputs": [],
      "stateMutability": "nonpayable",
      "type": "function"
    },
    {
      "inputs": [],
      "name": "getRoomsAvailable",
      "outputs": [
        {
          "internalType": "uint256",
          "name": "",
          "type": "uint256"
        }
      ],
      "stateMutability": "view",
      "type": "function",
      "constant": true
    },
    {
      "inputs": [
        {
          "internalType": "uint256",
          "name": "roomNumber",
          "type": "uint256"
        }
      ],
      "name": "hotelCheckIn",
      "outputs": [],
      "stateMutability": "nonpayable",
      "type": "function"
    },
    {
      "inputs": [
        {
          "internalType": "uint256",
          "name": "roomNumber",
          "type": "uint256"
        }
      ],
      "name": "hotelCheckOut",
      "outputs": [],
      "stateMutability": "nonpayable",
      "type": "function"
    },
    {
      "inputs": [
        {
          "internalType": "uint256",
          "name": "roomNumber",
          "type": "uint256"
        }
      ],
      "name": "appreciation",
      "outputs": [],
      "stateMutability": "nonpayable",
      "type": "function"
    },
    {
      "inputs": [
        {
          "internalType": "uint256",
          "name": "roomNumber",
          "type": "uint256"
        }
      ],
      "name": "depreciation",
      "outputs": [],
      "stateMutability": "nonpayable",
      "type": "function"
    }
  ],
  "bytecode": "0x60806040523480156200001157600080fd5b506040518060400160405280600781526020017f4848546f6b656e000000000000000000000000000000000000000000000000008152506040518060400160405280600381526020017f484854000000000000000000000000000000000000000000000000000000000081525081600090816200008f919062000365565b508060019081620000a1919062000365565b50505033600660006101000a81548173ffffffffffffffffffffffffffffffffffffffff021916908373ffffffffffffffffffffffffffffffffffffffff1602179055506200044c565b600081519050919050565b7f4e487b7100000000000000000000000000000000000000000000000000000000600052604160045260246000fd5b7f4e487b7100000000000000000000000000000000000000000000000000000000600052602260045260246000fd5b600060028204905060018216806200016d57607f821691505b60208210810362000183576200018262000125565b5b50919050565b60008190508160005260206000209050919050565b60006020601f8301049050919050565b600082821b905092915050565b600060088302620001ed7fffffffffffffffffffffffffffffffffffffffffffffffffffffffffffffffff82620001ae565b620001f98683620001ae565b95508019841693508086168417925050509392505050565b6000819050919050565b6000819050919050565b600062000246620002406200023a8462000211565b6200021b565b62000211565b9050919050565b6000819050919050565b620002628362000225565b6200027a62000271826200024d565b848454620001bb565b825550505050565b600090565b6200029162000282565b6200029e81848462000257565b505050565b5b81811015620002c657620002ba60008262000287565b600181019050620002a4565b5050565b601f8211156200031557620002df8162000189565b620002ea846200019e565b81016020851015620002fa578190505b6200031262000309856200019e565b830182620002a3565b50505b505050565b600082821c905092915050565b60006200033a600019846008026200031a565b1980831691505092915050565b600062000355838362000327565b9150826002028217905092915050565b6200037082620000eb565b67ffffffffffffffff8111156200038c576200038b620000f6565b5b62000398825462000154565b620003a5828285620002ca565b600060209050601f831160018114620003dd5760008415620003c8578287015190505b620003d4858262000347565b86555062000444565b601f198416620003ed8662000189565b60005b828110156200041757848901518255600182019150602085019450602081019050620003f0565b8683101562000437578489015162000433601f89168262000327565b8355505b6001600288020188555050505b505050505050565b6134fe806200045c6000396000f3fe60806040526004361061012a5760003560e01c8063733e4c16116100ab578063b88d4fde1161006f578063b88d4fde146103df578063c87b56dd14610408578063d9df179814610445578063e985e9c51461046e578063f1a97be9146104ab578063fd914d37146104d45761012a565b8063733e4c161461030e578063772825c41461033957806395d89b411461036257806399cdaa2f1461038d578063a22cb465146103b65761012a565b8063276a45f8116100f2578063276a45f8146102265780632c618ba31461024f57806342842e0e1461026b5780636352211e1461029457806370a08231146102d15761012a565b806301ffc9a71461012f57806306fdde031461016c578063081812fc14610197578063095ea7b3146101d457806323b872dd146101fd575b600080fd5b34801561013b57600080fd5b5061015660048036038101906101519190612621565b6104fd565b6040516101639190612669565b60405180910390f35b34801561017857600080fd5b506101816105df565b60405161018e9190612714565b60405180910390f35b3480156101a357600080fd5b506101be60048036038101906101b9919061276c565b610671565b6040516101cb91906127da565b60405180910390f35b3480156101e057600080fd5b506101fb60048036038101906101f69190612821565b6106b7565b005b34801561020957600080fd5b50610224600480360381019061021f9190612861565b6107ce565b005b34801561023257600080fd5b5061024d6004803603810190610248919061276c565b61082e565b005b6102696004803603810190610264919061276c565b610966565b005b34801561027757600080fd5b50610292600480360381019061028d9190612861565b610b8d565b005b3480156102a057600080fd5b506102bb60048036038101906102b6919061276c565b610bad565b6040516102c891906127da565b60405180910390f35b3480156102dd57600080fd5b506102f860048036038101906102f391906128b4565b610c33565b60405161030591906128f0565b60405180910390f35b34801561031a57600080fd5b50610323610cea565b60405161033091906128f0565b60405180910390f35b34801561034557600080fd5b50610360600480360381019061035b919061276c565b610d8b565b005b34801561036e57600080fd5b5061037761115e565b6040516103849190612714565b60405180910390f35b34801561039957600080fd5b506103b460048036038101906103af919061276c565b6111f0565b005b3480156103c257600080fd5b506103dd60048036038101906103d89190612937565b6112bb565b005b3480156103eb57600080fd5b5061040660048036038101906104019190612aac565b6112d1565b005b34801561041457600080fd5b5061042f600480360381019061042a919061276c565b611333565b60405161043c9190612714565b60405180910390f35b34801561045157600080fd5b5061046c6004803603810190610467919061276c565b61139b565b005b34801561047a57600080fd5b5061049560048036038101906104909190612b2f565b611466565b6040516104a29190612669565b60405180910390f35b3480156104b757600080fd5b506104d260048036038101906104cd919061276c565b6114fa565b005b3480156104e057600080fd5b506104fb60048036038101906104f6919061276c565b61164d565b005b60007f80ac58cd000000000000000000000000000000000000000000000000000000007bffffffffffffffffffffffffffffffffffffffffffffffffffffffff1916827bffffffffffffffffffffffffffffffffffffffffffffffffffffffff191614806105c857507f5b5e139f000000000000000000000000000000000000000000000000000000007bffffffffffffffffffffffffffffffffffffffffffffffffffffffff1916827bffffffffffffffffffffffffffffffffffffffffffffffffffffffff1916145b806105d857506105d7826117e7565b5b9050919050565b6060600080546105ee90612b9e565b80601f016020809104026020016040519081016040528092919081815260200182805461061a90612b9e565b80156106675780601f1061063c57610100808354040283529160200191610667565b820191906000526020600020905b81548152906001019060200180831161064a57829003601f168201915b5050505050905090565b600061067c82611851565b6004600083815260200190815260200160002060009054906101000a900473ffffffffffffffffffffffffffffffffffffffff169050919050565b60006106c282610bad565b90508073ffffffffffffffffffffffffffffffffffffffff168373ffffffffffffffffffffffffffffffffffffffff1603610732576040517f08c379a000000000000000000000000000000000000000000000000000000000815260040161072990612c41565b60405180910390fd5b8073ffffffffffffffffffffffffffffffffffffffff1661075161189c565b73ffffffffffffffffffffffffffffffffffffffff161480610780575061077f8161077a61189c565b611466565b5b6107bf576040517f08c379a00000000000000000000000000000000000000000000000000000000081526004016107b690612cd3565b60405180910390fd5b6107c983836118a4565b505050565b6107df6107d961189c565b8261195d565b61081e576040517f08c379a000000000000000000000000000000000000000000000000000000000815260040161081590612d65565b60405180910390fd5b6108298383836119f2565b505050565b600660009054906101000a900473ffffffffffffffffffffffffffffffffffffffff1673ffffffffffffffffffffffffffffffffffffffff163373ffffffffffffffffffffffffffffffffffffffff161461088857600080fd5b604051806040016040528060085481526020018281525060096000600854815260200190815260200160002060008201518160000155602082015181600101559050506007600090806001815401808255809150506001900390600052602060002090602091828204019190069091909190916101000a81548160ff0219169083600181111561091b5761091a612d85565b5b021790555061094e600660009054906101000a900473ffffffffffffffffffffffffffffffffffffffff16600854611ceb565b600160085461095d9190612de3565b60088190555050565b80600780549050811061097857600080fd5b60006007838154811061098e5761098d612e17565b5b90600052602060002090602091828204019190069054906101000a900460ff169050600060018111156109c4576109c3612d85565b5b8160018111156109d7576109d6612d85565b5b146109e157600080fd5b6001600784815481106109f7576109f6612e17565b5b90600052602060002090602091828204019190066101000a81548160ff02191690836001811115610a2b57610a2a612d85565b5b021790555082600a60003373ffffffffffffffffffffffffffffffffffffffff1673ffffffffffffffffffffffffffffffffffffffff16815260200190815260200160002081905550600d6000848152602001908152602001600020339080600181540180825580915050600190039060005260206000200160009091909190916101000a81548173ffffffffffffffffffffffffffffffffffffffff021916908373ffffffffffffffffffffffffffffffffffffffff160217905550600660009054906101000a900473ffffffffffffffffffffffffffffffffffffffff1673ffffffffffffffffffffffffffffffffffffffff166108fc349081150290604051600060405180830381858888f19350505050158015610b50573d6000803e3d6000fd5b507fde42435558107ba8a2f1f8338e5a57de3d9dccf61320f40322a44cf9d9292dc383604051610b8091906128f0565b60405180910390a1505050565b610ba8838383604051806020016040528060008152506112d1565b505050565b600080610bb983611d09565b9050600073ffffffffffffffffffffffffffffffffffffffff168173ffffffffffffffffffffffffffffffffffffffff1603610c2a576040517f08c379a0000000000000000000000000000000000000000000000000000000008152600401610c2190612e92565b60405180910390fd5b80915050919050565b60008073ffffffffffffffffffffffffffffffffffffffff168273ffffffffffffffffffffffffffffffffffffffff1603610ca3576040517f08c379a0000000000000000000000000000000000000000000000000000000008152600401610c9a90612f24565b60405180910390fd5b600360008373ffffffffffffffffffffffffffffffffffffffff1673ffffffffffffffffffffffffffffffffffffffff168152602001908152602001600020549050919050565b6000806000905060008091505b600854821015610d835760006001811115610d1557610d14612d85565b5b60078381548110610d2957610d28612e17565b5b90600052602060002090602091828204019190069054906101000a900460ff166001811115610d5b57610d5a612d85565b5b03610d7057600181610d6d9190612de3565b90505b8180610d7b90612f44565b925050610cf7565b809250505090565b806007805490508110610d9d57600080fd5b600180811115610db057610daf612d85565b5b60078381548110610dc457610dc3612e17565b5b90600052602060002090602091828204019190069054906101000a900460ff166001811115610df657610df5612d85565b5b14610e0057600080fd5b33600c600084815260200190815260200160002060006101000a81548173ffffffffffffffffffffffffffffffffffffffff021916908373ffffffffffffffffffffffffffffffffffffffff1602179055506000600d6000848152602001908152602001600020805480602002602001604051908101604052809291908181526020018280548015610ee757602002820191906000526020600020905b8160009054906101000a900473ffffffffffffffffffffffffffffffffffffffff1673ffffffffffffffffffffffffffffffffffffffff1681526020019060010190808311610e9d575b5050505050905060008151111561106557600081600081518110610f0e57610f0d612e17565b5b6020026020010151905080600b600086815260200190815260200160002060006101000a81548173ffffffffffffffffffffffffffffffffffffffff021916908373ffffffffffffffffffffffffffffffffffffffff16021790555080600c600086815260200190815260200160002060006101000a81548173ffffffffffffffffffffffffffffffffffffffff021916908373ffffffffffffffffffffffffffffffffffffffff1602179055506000600d6000868152602001908152602001600020600081548110610fe457610fe3612e17565b5b9060005260206000200160006101000a81548173ffffffffffffffffffffffffffffffffffffffff021916908373ffffffffffffffffffffffffffffffffffffffff1602179055507f907101b4e8edc7943938557c3755979636b966655b7710e63eec95ad6301d7978460405161105b91906128f0565b60405180910390a1505b60006007848154811061107b5761107a612e17565b5b90600052602060002090602091828204019190066101000a81548160ff021916908360018111156110af576110ae612d85565b5b0217905550600b600084815260200190815260200160002060006101000a81549073ffffffffffffffffffffffffffffffffffffffff0219169055600c600084815260200190815260200160002060006101000a81549073ffffffffffffffffffffffffffffffffffffffff02191690557ff65ce03794824579bcd95d8c6743ffc10c4a5e7405fb3876c1abf81453105c423384604051611151929190612f8c565b60405180910390a1505050565b60606001805461116d90612b9e565b80601f016020809104026020016040519081016040528092919081815260200182805461119990612b9e565b80156111e65780601f106111bb576101008083540402835291602001916111e6565b820191906000526020600020905b8154815290600101906020018083116111c957829003601f168201915b5050505050905090565b80600780549050811061120257600080fd5b600660009054906101000a900473ffffffffffffffffffffffffffffffffffffffff1673ffffffffffffffffffffffffffffffffffffffff163373ffffffffffffffffffffffffffffffffffffffff161461125c57600080fd5b6064600560096000858152602001908152602001600020600101546112819190612fb5565b61128b9190613026565b6009600084815260200190815260200160002060010160008282546112b09190612de3565b925050819055505050565b6112cd6112c661189c565b8383611d46565b5050565b6112e26112dc61189c565b8361195d565b611321576040517f08c379a000000000000000000000000000000000000000000000000000000000815260040161131890612d65565b60405180910390fd5b61132d84848484611eb2565b50505050565b606061133e82611851565b6000611348611f0e565b905060008151116113685760405180602001604052806000815250611393565b8061137284611f25565b604051602001611383929190613093565b6040516020818303038152906040525b915050919050565b8060078054905081106113ad57600080fd5b600660009054906101000a900473ffffffffffffffffffffffffffffffffffffffff1673ffffffffffffffffffffffffffffffffffffffff163373ffffffffffffffffffffffffffffffffffffffff161461140757600080fd5b60646005600960008581526020019081526020016000206001015461142c9190612fb5565b6114369190613026565b60096000848152602001908152602001600020600101600082825461145b91906130b7565b925050819055505050565b6000600560008473ffffffffffffffffffffffffffffffffffffffff1673ffffffffffffffffffffffffffffffffffffffff16815260200190815260200160002060008373ffffffffffffffffffffffffffffffffffffffff1673ffffffffffffffffffffffffffffffffffffffff16815260200190815260200160002060009054906101000a900460ff16905092915050565b80600780549050811061150c57600080fd5b8180600a60003373ffffffffffffffffffffffffffffffffffffffff1673ffffffffffffffffffffffffffffffffffffffff168152602001908152602001600020541461155857600080fd5b60006007848154811061156e5761156d612e17565b5b90600052602060002090602091828204019190069054906101000a900460ff1690506001808111156115a3576115a2612d85565b5b8160018111156115b6576115b5612d85565b5b1461160e5733600b600086815260200190815260200160002060006101000a81548173ffffffffffffffffffffffffffffffffffffffff021916908373ffffffffffffffffffffffffffffffffffffffff1602179055505b7fa864a8b988e604bb05d6ce75d53efabb5620c45b15380b7bd0c51dcfa71dda03338560405161163f929190612f8c565b60405180910390a150505050565b80600780549050811061165f57600080fd5b8180600a60003373ffffffffffffffffffffffffffffffffffffffff1673ffffffffffffffffffffffffffffffffffffffff16815260200190815260200160002054146116ab57600080fd5b6000600784815481106116c1576116c0612e17565b5b90600052602060002090602091828204019190069054906101000a900460ff1690506001808111156116f6576116f5612d85565b5b81600181111561170957611708612d85565b5b036117a55760006007858154811061172457611723612e17565b5b90600052602060002090602091828204019190066101000a81548160ff0219169083600181111561175857611757612d85565b5b0217905550600a60003373ffffffffffffffffffffffffffffffffffffffff1673ffffffffffffffffffffffffffffffffffffffff168152602001908152602001600020600090556117aa565b600080fd5b7f54831fa73d9a6fbad359176fb6333708cecc8070c85a44d81fa028b93c5b1fd2846040516117d991906128f0565b60405180910390a150505050565b60007f01ffc9a7000000000000000000000000000000000000000000000000000000007bffffffffffffffffffffffffffffffffffffffffffffffffffffffff1916827bffffffffffffffffffffffffffffffffffffffffffffffffffffffff1916149050919050565b61185a81611ff3565b611899576040517f08c379a000000000000000000000000000000000000000000000000000000000815260040161189090612e92565b60405180910390fd5b50565b600033905090565b816004600083815260200190815260200160002060006101000a81548173ffffffffffffffffffffffffffffffffffffffff021916908373ffffffffffffffffffffffffffffffffffffffff160217905550808273ffffffffffffffffffffffffffffffffffffffff1661191783610bad565b73ffffffffffffffffffffffffffffffffffffffff167f8c5be1e5ebec7d5bd14f71427d1e84f3dd0314c0f7b2291e5b200ac8c7c3b92560405160405180910390a45050565b60008061196983610bad565b90508073ffffffffffffffffffffffffffffffffffffffff168473ffffffffffffffffffffffffffffffffffffffff1614806119ab57506119aa8185611466565b5b806119e957508373ffffffffffffffffffffffffffffffffffffffff166119d184610671565b73ffffffffffffffffffffffffffffffffffffffff16145b91505092915050565b8273ffffffffffffffffffffffffffffffffffffffff16611a1282610bad565b73ffffffffffffffffffffffffffffffffffffffff1614611a68576040517f08c379a0000000000000000000000000000000000000000000000000000000008152600401611a5f9061315d565b60405180910390fd5b600073ffffffffffffffffffffffffffffffffffffffff168273ffffffffffffffffffffffffffffffffffffffff1603611ad7576040517f08c379a0000000000000000000000000000000000000000000000000000000008152600401611ace906131ef565b60405180910390fd5b611ae48383836001612034565b8273ffffffffffffffffffffffffffffffffffffffff16611b0482610bad565b73ffffffffffffffffffffffffffffffffffffffff1614611b5a576040517f08c379a0000000000000000000000000000000000000000000000000000000008152600401611b519061315d565b60405180910390fd5b6004600082815260200190815260200160002060006101000a81549073ffffffffffffffffffffffffffffffffffffffff02191690556001600360008573ffffffffffffffffffffffffffffffffffffffff1673ffffffffffffffffffffffffffffffffffffffff168152602001908152602001600020600082825403925050819055506001600360008473ffffffffffffffffffffffffffffffffffffffff1673ffffffffffffffffffffffffffffffffffffffff16815260200190815260200160002060008282540192505081905550816002600083815260200190815260200160002060006101000a81548173ffffffffffffffffffffffffffffffffffffffff021916908373ffffffffffffffffffffffffffffffffffffffff160217905550808273ffffffffffffffffffffffffffffffffffffffff168473ffffffffffffffffffffffffffffffffffffffff167fddf252ad1be2c89b69c2b068fc378daa952ba7f163c4a11628f55a4df523b3ef60405160405180910390a4611ce6838383600161203a565b505050565b611d05828260405180602001604052806000815250612040565b5050565b60006002600083815260200190815260200160002060009054906101000a900473ffffffffffffffffffffffffffffffffffffffff169050919050565b8173ffffffffffffffffffffffffffffffffffffffff168373ffffffffffffffffffffffffffffffffffffffff1603611db4576040517f08c379a0000000000000000000000000000000000000000000000000000000008152600401611dab9061325b565b60405180910390fd5b80600560008573ffffffffffffffffffffffffffffffffffffffff1673ffffffffffffffffffffffffffffffffffffffff16815260200190815260200160002060008473ffffffffffffffffffffffffffffffffffffffff1673ffffffffffffffffffffffffffffffffffffffff16815260200190815260200160002060006101000a81548160ff0219169083151502179055508173ffffffffffffffffffffffffffffffffffffffff168373ffffffffffffffffffffffffffffffffffffffff167f17307eab39ab6107e8899845ad3d59bd9653f200f220920489ca2b5937696c3183604051611ea59190612669565b60405180910390a3505050565b611ebd8484846119f2565b611ec98484848461209b565b611f08576040517f08c379a0000000000000000000000000000000000000000000000000000000008152600401611eff906132ed565b60405180910390fd5b50505050565b606060405180602001604052806000815250905090565b606060006001611f3484612222565b01905060008167ffffffffffffffff811115611f5357611f52612981565b5b6040519080825280601f01601f191660200182016040528015611f855781602001600182028036833780820191505090505b509050600082602001820190505b600115611fe8578080600190039150507f3031323334353637383961626364656600000000000000000000000000000000600a86061a8153600a8581611fdc57611fdb612ff7565b5b04945060008503611f93575b819350505050919050565b60008073ffffffffffffffffffffffffffffffffffffffff1661201583611d09565b73ffffffffffffffffffffffffffffffffffffffff1614159050919050565b50505050565b50505050565b61204a8383612375565b612057600084848461209b565b612096576040517f08c379a000000000000000000000000000000000000000000000000000000000815260040161208d906132ed565b60405180910390fd5b505050565b60006120bc8473ffffffffffffffffffffffffffffffffffffffff16612592565b15612215578373ffffffffffffffffffffffffffffffffffffffff1663150b7a026120e561189c565b8786866040518563ffffffff1660e01b81526004016121079493929190613362565b6020604051808303816000875af192505050801561214357506040513d601f19601f8201168201806040525081019061214091906133c3565b60015b6121c5573d8060008114612173576040519150601f19603f3d011682016040523d82523d6000602084013e612178565b606091505b5060008151036121bd576040517f08c379a00000000000000000000000000000000000000000000000000000000081526004016121b4906132ed565b60405180910390fd5b805181602001fd5b63150b7a0260e01b7bffffffffffffffffffffffffffffffffffffffffffffffffffffffff1916817bffffffffffffffffffffffffffffffffffffffffffffffffffffffff19161491505061221a565b600190505b949350505050565b600080600090507a184f03e93ff9f4daa797ed6e38ed64bf6a1f0100000000000000008310612280577a184f03e93ff9f4daa797ed6e38ed64bf6a1f010000000000000000838161227657612275612ff7565b5b0492506040810190505b6d04ee2d6d415b85acef810000000083106122bd576d04ee2d6d415b85acef810000000083816122b3576122b2612ff7565b5b0492506020810190505b662386f26fc1000083106122ec57662386f26fc1000083816122e2576122e1612ff7565b5b0492506010810190505b6305f5e1008310612315576305f5e100838161230b5761230a612ff7565b5b0492506008810190505b612710831061233a5761271083816123305761232f612ff7565b5b0492506004810190505b6064831061235d576064838161235357612352612ff7565b5b0492506002810190505b600a831061236c576001810190505b80915050919050565b600073ffffffffffffffffffffffffffffffffffffffff168273ffffffffffffffffffffffffffffffffffffffff16036123e4576040517f08c379a00000000000000000000000000000000000000000000000000000000081526004016123db9061343c565b60405180910390fd5b6123ed81611ff3565b1561242d576040517f08c379a0000000000000000000000000000000000000000000000000000000008152600401612424906134a8565b60405180910390fd5b61243b600083836001612034565b61244481611ff3565b15612484576040517f08c379a000000000000000000000000000000000000000000000000000000000815260040161247b906134a8565b60405180910390fd5b6001600360008473ffffffffffffffffffffffffffffffffffffffff1673ffffffffffffffffffffffffffffffffffffffff16815260200190815260200160002060008282540192505081905550816002600083815260200190815260200160002060006101000a81548173ffffffffffffffffffffffffffffffffffffffff021916908373ffffffffffffffffffffffffffffffffffffffff160217905550808273ffffffffffffffffffffffffffffffffffffffff16600073ffffffffffffffffffffffffffffffffffffffff167fddf252ad1be2c89b69c2b068fc378daa952ba7f163c4a11628f55a4df523b3ef60405160405180910390a461258e60008383600161203a565b5050565b6000808273ffffffffffffffffffffffffffffffffffffffff163b119050919050565b6000604051905090565b600080fd5b600080fd5b60007fffffffff0000000000000000000000000000000000000000000000000000000082169050919050565b6125fe816125c9565b811461260957600080fd5b50565b60008135905061261b816125f5565b92915050565b600060208284031215612637576126366125bf565b5b60006126458482850161260c565b91505092915050565b60008115159050919050565b6126638161264e565b82525050565b600060208201905061267e600083018461265a565b92915050565b600081519050919050565b600082825260208201905092915050565b60005b838110156126be5780820151818401526020810190506126a3565b60008484015250505050565b6000601f19601f8301169050919050565b60006126e682612684565b6126f0818561268f565b93506127008185602086016126a0565b612709816126ca565b840191505092915050565b6000602082019050818103600083015261272e81846126db565b905092915050565b6000819050919050565b61274981612736565b811461275457600080fd5b50565b60008135905061276681612740565b92915050565b600060208284031215612782576127816125bf565b5b600061279084828501612757565b91505092915050565b600073ffffffffffffffffffffffffffffffffffffffff82169050919050565b60006127c482612799565b9050919050565b6127d4816127b9565b82525050565b60006020820190506127ef60008301846127cb565b92915050565b6127fe816127b9565b811461280957600080fd5b50565b60008135905061281b816127f5565b92915050565b60008060408385031215612838576128376125bf565b5b60006128468582860161280c565b925050602061285785828601612757565b9150509250929050565b60008060006060848603121561287a576128796125bf565b5b60006128888682870161280c565b93505060206128998682870161280c565b92505060406128aa86828701612757565b9150509250925092565b6000602082840312156128ca576128c96125bf565b5b60006128d88482850161280c565b91505092915050565b6128ea81612736565b82525050565b600060208201905061290560008301846128e1565b92915050565b6129148161264e565b811461291f57600080fd5b50565b6000813590506129318161290b565b92915050565b6000806040838503121561294e5761294d6125bf565b5b600061295c8582860161280c565b925050602061296d85828601612922565b9150509250929050565b600080fd5b600080fd5b7f4e487b7100000000000000000000000000000000000000000000000000000000600052604160045260246000fd5b6129b9826126ca565b810181811067ffffffffffffffff821117156129d8576129d7612981565b5b80604052505050565b60006129eb6125b5565b90506129f782826129b0565b919050565b600067ffffffffffffffff821115612a1757612a16612981565b5b612a20826126ca565b9050602081019050919050565b82818337600083830152505050565b6000612a4f612a4a846129fc565b6129e1565b905082815260208101848484011115612a6b57612a6a61297c565b5b612a76848285612a2d565b509392505050565b600082601f830112612a9357612a92612977565b5b8135612aa3848260208601612a3c565b91505092915050565b60008060008060808587031215612ac657612ac56125bf565b5b6000612ad48782880161280c565b9450506020612ae58782880161280c565b9350506040612af687828801612757565b925050606085013567ffffffffffffffff811115612b1757612b166125c4565b5b612b2387828801612a7e565b91505092959194509250565b60008060408385031215612b4657612b456125bf565b5b6000612b548582860161280c565b9250506020612b658582860161280c565b9150509250929050565b7f4e487b7100000000000000000000000000000000000000000000000000000000600052602260045260246000fd5b60006002820490506001821680612bb657607f821691505b602082108103612bc957612bc8612b6f565b5b50919050565b7f4552433732313a20617070726f76616c20746f2063757272656e74206f776e6560008201527f7200000000000000000000000000000000000000000000000000000000000000602082015250565b6000612c2b60218361268f565b9150612c3682612bcf565b604082019050919050565b60006020820190508181036000830152612c5a81612c1e565b9050919050565b7f4552433732313a20617070726f76652063616c6c6572206973206e6f7420746f60008201527f6b656e206f776e6572206f7220617070726f76656420666f7220616c6c000000602082015250565b6000612cbd603d8361268f565b9150612cc882612c61565b604082019050919050565b60006020820190508181036000830152612cec81612cb0565b9050919050565b7f4552433732313a2063616c6c6572206973206e6f7420746f6b656e206f776e6560008201527f72206f7220617070726f76656400000000000000000000000000000000000000602082015250565b6000612d4f602d8361268f565b9150612d5a82612cf3565b604082019050919050565b60006020820190508181036000830152612d7e81612d42565b9050919050565b7f4e487b7100000000000000000000000000000000000000000000000000000000600052602160045260246000fd5b7f4e487b7100000000000000000000000000000000000000000000000000000000600052601160045260246000fd5b6000612dee82612736565b9150612df983612736565b9250828201905080821115612e1157612e10612db4565b5b92915050565b7f4e487b7100000000000000000000000000000000000000000000000000000000600052603260045260246000fd5b7f4552433732313a20696e76616c696420746f6b656e2049440000000000000000600082015250565b6000612e7c60188361268f565b9150612e8782612e46565b602082019050919050565b60006020820190508181036000830152612eab81612e6f565b9050919050565b7f4552433732313a2061646472657373207a65726f206973206e6f74206120766160008201527f6c6964206f776e65720000000000000000000000000000000000000000000000602082015250565b6000612f0e60298361268f565b9150612f1982612eb2565b604082019050919050565b60006020820190508181036000830152612f3d81612f01565b9050919050565b6000612f4f82612736565b91507fffffffffffffffffffffffffffffffffffffffffffffffffffffffffffffffff8203612f8157612f80612db4565b5b600182019050919050565b6000604082019050612fa160008301856127cb565b612fae60208301846128e1565b9392505050565b6000612fc082612736565b9150612fcb83612736565b9250828202612fd981612736565b91508282048414831517612ff057612fef612db4565b5b5092915050565b7f4e487b7100000000000000000000000000000000000000000000000000000000600052601260045260246000fd5b600061303182612736565b915061303c83612736565b92508261304c5761304b612ff7565b5b828204905092915050565b600081905092915050565b600061306d82612684565b6130778185613057565b93506130878185602086016126a0565b80840191505092915050565b600061309f8285613062565b91506130ab8284613062565b91508190509392505050565b60006130c282612736565b91506130cd83612736565b92508282039050818111156130e5576130e4612db4565b5b92915050565b7f4552433732313a207472616e736665722066726f6d20696e636f72726563742060008201527f6f776e6572000000000000000000000000000000000000000000000000000000602082015250565b600061314760258361268f565b9150613152826130eb565b604082019050919050565b600060208201905081810360008301526131768161313a565b9050919050565b7f4552433732313a207472616e7366657220746f20746865207a65726f2061646460008201527f7265737300000000000000000000000000000000000000000000000000000000602082015250565b60006131d960248361268f565b91506131e48261317d565b604082019050919050565b60006020820190508181036000830152613208816131cc565b9050919050565b7f4552433732313a20617070726f766520746f2063616c6c657200000000000000600082015250565b600061324560198361268f565b91506132508261320f565b602082019050919050565b6000602082019050818103600083015261327481613238565b9050919050565b7f4552433732313a207472616e7366657220746f206e6f6e20455243373231526560008201527f63656976657220696d706c656d656e7465720000000000000000000000000000602082015250565b60006132d760328361268f565b91506132e28261327b565b604082019050919050565b60006020820190508181036000830152613306816132ca565b9050919050565b600081519050919050565b600082825260208201905092915050565b60006133348261330d565b61333e8185613318565b935061334e8185602086016126a0565b613357816126ca565b840191505092915050565b600060808201905061337760008301876127cb565b61338460208301866127cb565b61339160408301856128e1565b81810360608301526133a38184613329565b905095945050505050565b6000815190506133bd816125f5565b92915050565b6000602082840312156133d9576133d86125bf565b5b60006133e7848285016133ae565b91505092915050565b7f4552433732313a206d696e7420746f20746865207a65726f2061646472657373600082015250565b600061342660208361268f565b9150613431826133f0565b602082019050919050565b6000602082019050818103600083015261345581613419565b9050919050565b7f4552433732313a20746f6b656e20616c7265616479206d696e74656400000000600082015250565b6000613492601c8361268f565b915061349d8261345c565b602082019050919050565b600060208201905081810360008301526134c181613485565b905091905056fea2646970667358221220cb50e7151864662a0b143ce5189fc7bf0018239d5f81aa012179a238b25abe1564736f6c63430008130033",
  "immutableReferences": {},
  "source": "// SPDX-License-Identifier: MIT\r\npragma solidity ^0.8.0;\r\n\r\nimport \"@openzeppelin/contracts/token/ERC721/ERC721.sol\";\r\n\r\ncontract HHT is ERC721 {\r\n    address payable owner;\r\n    struct roomDetails{\r\n        uint roomId;\r\n        uint price;\r\n    }\r\n    enum RoomStatus { Available, Occupied }\r\n    RoomStatus[] rooms;\r\n    uint roomCount;\r\n    mapping(uint => roomDetails) roomMap;\r\n    mapping(address => uint) roomBookings;\r\n    mapping(uint => address) checkIns;\r\n    mapping(uint => address) checkOuts;\r\n    mapping(uint => address[]) waitLists;\r\n\r\n    event CheckIn(address customer, uint roomNumber);\r\n    event CheckOut(address customer, uint roomNumber);\r\n    event RoomBooked(uint roomNumber);\r\n    event RoomCanceled(uint roomNumber);\r\n    event RoomReassigned(uint roomNumber);\r\n\r\n    constructor() ERC721(\"HHToken\", \"HHT\") {\r\n        owner = payable(msg.sender);\r\n    }\r\n\r\n    modifier onlyOwner() {\r\n        require(msg.sender == owner);\r\n        _;\r\n    }\r\n    \r\n    modifier onlyValidRoom(uint roomNumber) {\r\n        require(roomNumber < rooms.length);\r\n        _;\r\n    }\r\n\r\n    modifier isBooked(uint roomNumber) {\r\n        require(roomBookings[msg.sender] == roomNumber);\r\n        _;\r\n    }\r\n\r\n    function addRoom(uint256 price) public onlyOwner{\r\n        roomMap[roomCount] = roomDetails(roomCount,price);\r\n        rooms.push(RoomStatus.Available);\r\n        _safeMint(owner, roomCount);\r\n        roomCount = roomCount+1;\r\n    }\r\n\r\n    function bookHotelRoom(uint256 roomNumber) public payable onlyValidRoom(roomNumber) {\r\n        RoomStatus status = rooms[roomNumber];\r\n        if(status != RoomStatus.Available){\r\n            revert();\r\n        }\r\n        rooms[roomNumber] = RoomStatus.Occupied;\r\n        roomBookings[msg.sender] = roomNumber;\r\n        waitLists[roomNumber].push(msg.sender);\r\n        owner.transfer(msg.value);\r\n        emit RoomBooked(roomNumber);\r\n    }\r\n\r\n    function cancelHotelBooking(uint256 roomNumber) public onlyValidRoom(roomNumber) isBooked(roomNumber) {\r\n            RoomStatus room = rooms[roomNumber];\r\n            if(room == RoomStatus.Occupied){\r\n                rooms[roomNumber] = RoomStatus.Available;\r\n                delete roomBookings[msg.sender];\r\n            }\r\n            else{\r\n                revert();\r\n            }\r\n        emit RoomCanceled(roomNumber);\r\n    }\r\n\r\n    function getRoomsAvailable() public view returns(uint) {\r\n        uint i=0;\r\n        uint count = 0;\r\n        for(i = 0;i<roomCount;i++){\r\n            if (rooms[i] == RoomStatus.Available){\r\n                count += 1;\r\n            }\r\n        }\r\n        return count;\r\n    }\r\n\r\n    function hotelCheckIn(uint256 roomNumber) public onlyValidRoom(roomNumber) isBooked(roomNumber) {\r\n        RoomStatus room = rooms[roomNumber];\r\n        if(room != RoomStatus.Occupied){\r\n            checkIns[roomNumber] = msg.sender;\r\n        }\r\n        emit CheckIn(msg.sender, roomNumber);\r\n    }\r\n\r\n    function hotelCheckOut(uint256 roomNumber) public onlyValidRoom(roomNumber) {\r\n        require(rooms[roomNumber] == RoomStatus.Occupied);\r\n        checkOuts[roomNumber] = msg.sender;\r\n        address[] memory waitList = waitLists[roomNumber];\r\n        if (waitList.length > 0) {\r\n            address newCustomer = waitList[0];\r\n            checkIns[roomNumber] = newCustomer;\r\n            checkOuts[roomNumber] = newCustomer;\r\n            waitLists[roomNumber][0] = address(0);\r\n            emit RoomReassigned(roomNumber);\r\n        }\r\n        rooms[roomNumber] = RoomStatus.Available;\r\n        delete checkIns[roomNumber];\r\n        delete checkOuts[roomNumber];\r\n        emit CheckOut(msg.sender, roomNumber);\r\n    }\r\n\r\n    function appreciation(uint256 roomNumber) onlyValidRoom(roomNumber) onlyOwner public{\r\n        roomMap[roomNumber].price += roomMap[roomNumber].price * 5 / 100;\r\n    }\r\n\r\n    function depreciation(uint256 roomNumber) onlyValidRoom(roomNumber) onlyOwner public {\r\n        roomMap[roomNumber].price -= roomMap[roomNumber].price * 5 / 100;\r\n    }\r\n}",
  "sourcePath": "C:\\Users\\MEGHANA REDDY C\\Desktop\\Masters UB\\Spring_23\\Blockchain\\project-phase-2\\Hotelhive-Dapp\\hotelhive-contract\\contracts\\HHT.sol",
  "compiler": {
    "name": "solc",
    "version": "0.8.19+commit.7dd6d404.Emscripten.clang"
  },
  "schemaVersion": "3.4.13",
  "updatedAt": "2023-05-10T00:48:13.351Z",
  "networkType": "ethereum",
  "devdoc": {
    "events": {
      "Approval(address,address,uint256)": {
        "details": "Emitted when `owner` enables `approved` to manage the `tokenId` token."
      },
      "ApprovalForAll(address,address,bool)": {
        "details": "Emitted when `owner` enables or disables (`approved`) `operator` to manage all of its assets."
      },
      "Transfer(address,address,uint256)": {
        "details": "Emitted when `tokenId` token is transferred from `from` to `to`."
      }
    },
    "kind": "dev",
    "methods": {
      "approve(address,uint256)": {
        "details": "See {IERC721-approve}."
      },
      "balanceOf(address)": {
        "details": "See {IERC721-balanceOf}."
      },
      "getApproved(uint256)": {
        "details": "See {IERC721-getApproved}."
      },
      "isApprovedForAll(address,address)": {
        "details": "See {IERC721-isApprovedForAll}."
      },
      "name()": {
        "details": "See {IERC721Metadata-name}."
      },
      "ownerOf(uint256)": {
        "details": "See {IERC721-ownerOf}."
      },
      "safeTransferFrom(address,address,uint256)": {
        "details": "See {IERC721-safeTransferFrom}."
      },
      "safeTransferFrom(address,address,uint256,bytes)": {
        "details": "See {IERC721-safeTransferFrom}."
      },
      "setApprovalForAll(address,bool)": {
        "details": "See {IERC721-setApprovalForAll}."
      },
      "supportsInterface(bytes4)": {
        "details": "See {IERC165-supportsInterface}."
      },
      "symbol()": {
        "details": "See {IERC721Metadata-symbol}."
      },
      "tokenURI(uint256)": {
        "details": "See {IERC721Metadata-tokenURI}."
      },
      "transferFrom(address,address,uint256)": {
        "details": "See {IERC721-transferFrom}."
      }
    },
    "version": 1
  },
  "userdoc": {
    "kind": "user",
    "methods": {},
    "version": 1
  }
}